:020000040800F2
:100000002809002045010008B1030008B3030008D7
:10001000B7030008BB030008BF030008000000008E
:10002000000000000000000000000000C303000802
:10003000C503000800000000C7030008C90300084A
:100040005F0100085F0100085F010008BB060008AF
:100050005F0100085F0100085F0100085F01000800
:100060005F0100085F0100085F0100085F010008F0
:100070005F0100085F0100085F0100085F010008E0
:100080005F0100085F0100085F0100085F010008D0
:100090005F0100085F0100085F010008D10300084C
:1000A0005F0100085F0100085F0100085F010008B0
:1000B000330400085F0100085F0100085F010008C9
:1000C0005F0100085F0100085F0100085F01000890
:1000D0005F010008C3040008990600085F010008DA
:1000E0005F0100085F0100085F0100085F01000870
:1000F0005F0100085F0100085F0100085F01000860
:100100005F0100085F0100085F0100085F0100084F
:100110005F0100085F0100085F0100085F0100083F
:100120005F0100085F0100085F0100085F0100082F
:10013000DFF80CD003F0FAFA004800476901000824
:10014000280900200648804706480047FEE7FEE7EA
:10015000FEE7FEE7FEE7FEE7FEE7FEE7FEE7FEE777
:100160002F2B00083101000898B000F0C3FB00F00D
:1001700000FC00F013FC00F047FC00F05DFB00F019
:10018000E5FA00F007FB00F02BFB00F069FC00F043
:100190007CFC0121084600F0DCFE00F002FDDBE003
:1001A0006E48006838B16D4801686DA003F05EFBD1
:1001B00000206A4908600A2000F073FB28E06A48C2
:1001C0000068401E684908600846006800EB80012E
:1001D00001EBC000654901EB800365A232210BA849
:1001E00002F09AFD6049096801EB810202EBC1014E
:1001F0005E4A02EB8101086B03F007F804462246D1
:100200000B460BA95FA003F031FB0A2000F049FB6D
:10021000554800680028D2D110215D4800F0E3FF66
:100220000028BCD15B48007878B3684600F079FCC0
:100230004D49096801EB810202EBC1014B4A02EB17
:1002400081002C22694602F011FF5349534800688F
:1002500002F076FF0646524800684FF47A71B0FB10
:10026000F1F201FB1205284602F0B1FF04463146C7
:1002700002F00EFF3C49096801EB810202EBC1016B
:100280003A4A02EB8101086355E0FFE73649096805
:1002900001EB810202EBC101344A02EB81002C2206
:1002A000404902F0E3FE4048006810B33A493B4839
:1002B000006802F045FF06463C480068642190FB58
:1002C000F1F04FF47A7190FBF1F201FB1205284630
:1002D00002F074FF0446314602F0DAFE2249096852
:1002E00001EB810202EBC101204A02EB81010863AC
:1002F00021E029492948006802F022FF06462848E3
:1003000000682A49096808444FF47A71B0FBF1F299
:1003100001FB1205284602F05AFF0446314602F05E
:10032000B7FE1149096801EB810202EBC1010F4AD6
:1003300002EB810108630C4800680B49096801EB76
:10034000810202EBC101094A02EB8101C862064841
:100350000068401C0449086022E70000A004002057
:1003600025640D0A0000000000000020900000201D
:1003700025592D256D2D25642025483A254D3A25F2
:100380005300000025732E2530362E32660D0A00EC
:1003900000100140360000200000C8422C00002060
:1003A0000C00002064000020140000201000002039
:1003B000704700BFFEE700BFFEE700BFFEE700BFDB
:1003C000FEE770477047704710B500F074FA10BD33
:1003D00000B587B0202001F035F840B3202001F0AF
:1003E00042F8BF480068BF490860BF48006802F093
:1003F000F3FEBC4948600120BC4908600020BC49AC
:100400000860BC4908701C22BB49684602F02EFEF9
:10041000B94810380FC800F065FBB648007808B13D
:1004200000F0A3FB0020AE490860AF49086007B0A8
:1004300000BD10B592B00121880702F02CFA002807
:100440003DD00121880702F037FAA948006820B1A1
:10045000AA480068401CA9490860A1480068401CDF
:100460009F4908600020A04908609D48006840F24C
:10047000F231884223D91C229F49684602F0F6FDDA
:100480009D4810380FC800F02DFB01F087FA441C7E
:10049000204600F0B4FB07A800F043FB1C220BA988
:1004A000684602F0E3FD07A80FC800F01BFB00F050
:1004B00052FB01208F49087000208D49086012B05E
:1004C00010BD10B540F225518D4801F003FA38B146
:1004D0008B48001D0088C4B221468AA003F0C6F9EB
:1004E00010BD014688480068052837D2DFE800F0D3
:1004F000030D17212B00472903D10120824A1060E8
:1005000002E00020804A10602AE04E2903D1022038
:100510007D4A106002E000207B4A106020E05A29EA
:1005200003D10320784A106002E00020764A106070
:1005300016E0442903D10420734A106002E0002031
:10054000714A10600CE0412904D100206E4A10600D
:100550000120704700206C4A106001E00020F8E79D
:1005600000BF0020F5E7694841780078303800EB9B
:10057000800001EB400030385F49103988606348E3
:10058000C1788078303800EB800001EB40003038D3
:100590005949103948605D4841790079303800EB9D
:1005A000800001EB4000303853491039086057484B
:1005B000817A407A303800EB800001EB400030381F
:1005C0004D491039C8605148017BC07A303800EB82
:1005D000800001EB400030384749103908614B4832
:1005E000407B30384FF47A7148434849897B303931
:1005F00001EBC10202EB011100EB81014348C07B1A
:10060000303800EB800001EB40014048007C30387E
:100610000844A0F26C7038491039486170472C28A2
:1006200000D170473A490A680968491C384B19607B
:100630003649885400BFF4E710B504460D2C0DD19F
:1006400034480068012809D1002033490860314945
:100650000860FFF788FF00202D4908602D480068DA
:1006600018B12046FFF7DBFF14E0242C03D1012052
:100670002949086010BD2848006858B12046FFF796
:1006800030FF38B100201D4908600120184908607A
:100690002049086000BFEDE710B540F225511F4822
:1006A00001F018F940B11D48001D00881C49087070
:1006B00008460078FFF7C0FF10BD10B5012001F01B
:1006C000C4F948B10020064908600749086001F0F4
:1006D00065F9044600F093FA012001F0D9F910BD44
:1006E0000C000020A00400202C00002004000020AA
:1006F00014000020360000207400002010000020AC
:10070000003801402563000018000020C8040020C4
:10071000080000201C0000202000002000440040B1
:100720002400002008B54FF4C06000F0A5FE17209B
:100730008DF8000000208DF801008DF802000120E6
:100740008DF80300684600F09CFE08BD0EB501213F
:10075000052000F0F1FBFFF7E5FF2020ADF80800D1
:1007600028208DF80B0002A91C4800F0A9FC0521E7
:10077000002000F0BBFD2020009000208DF8040038
:1007800008208DF8050001208DF80600684600F06D
:10079000F3FD0EBD0EB50121052000F0CDFBFFF7E6
:1007A000C1FF4020ADF8080028208DF80B0002A9F9
:1007B0000A4800F085FC0521002000F097FD40204C
:1007C000009000208DF8040008208DF8050001201D
:1007D0008DF80600684600F0CFFD0EBD0008014010
:1007E00008B50121102000F0A7FB1020ADF8000093
:1007F00048208DF8030069460D4800F061FC08BDF3
:1008000008B50121042000F097FB8020ADF800001E
:1008100010208DF8030003208DF80200694605487A
:1008200000F04EFC8021034800F0F7FC08BD0000FA
:10083000001001400008014030B528480068284AEF
:10084000B0FBF2F1B1F1807F01D301201DE021F076
:100850007F40401E4FF0E022506150170F220028C9
:1008600007DA13071D0E1F4B00F00F04241F1D5540
:1008700003E013071C0E1C4B1C5400BF00204FF05C
:10088000E022906107201061002008B100BFFEE760
:100890004FF0E020006940F001004FF0E0210861D6
:1008A00030BD01B511490098086000BF0F480068CD
:1008B0000028FBD108BD10B50C48006820B10B48DA
:1008C0000068401E094908604FF07E5108480068E2
:1008D00002F0DEFB0649086010BD00004C0000205D
:1008E000A086010018ED00E000E400E028000020F0
:1008F0002C00002000B585B0012144F2040000F076
:100900001BFB4FF40070ADF8100018208DF8130099
:1009100003208DF8120004A94E4800F0D1FB4FF4DB
:100920008060ADF8100004208DF8130004A9494838
:1009300000F0C6FB4FF4165000900020ADF8040004
:10094000ADF80600ADF80800ADF80C000C20ADF8CD
:100950000A006946404800F040FE012240F225515D
:100960003D4800F0D2FE01213B4800F0C2FE05B038
:1009700000BD08B54FF4E06000F07EFD25208DF845
:10098000000001208DF8010000208DF802000120F8
:100990008DF80300684600F074FD08BD00B585B011
:1009A0000121480400F0D5FA0121042000F0C4FA26
:1009B0000820ADF8100018208DF8130003208DF8E2
:1009C000120004A9234800F07BFB4FF4165000905E
:1009D0000020ADF80400ADF80600ADF80800ADF851
:1009E0000C000420ADF80A0069461C4800F0F5FD33
:1009F000012240F22551194800F087FE01211748D5
:100A000000F077FE05B000BD08B54FF4E06000F0DF
:100A100033FD26208DF8000001208DF80100002014
:100A20008DF8020001208DF80300684600F029FDD2
:100A300008BD70B504460D46E1B2074800F0C6FE99
:100A400000BF0548008800F080000028F9D020464B
:100A500070BD000000080140003801400044004023
:100A600008B54FF4E06000F007FD1C208DF8000091
:100A700000208DF8010003208DF8020001208DF880
:100A80000300684600F0FDFC08BD0EB501210846D4
:100A900000F05FFA4FF0804001F004F84FF47A70F4
:100AA000ADF804004720ADF800000020ADF80600C6
:100AB000ADF8020069464FF0804001F0C7F801210F
:100AC000880701F0E5FE01221146900701F035FC90
:100AD0000121880701F016FC0021012000F039FAFD
:100AE0000EBD00000FB410B502A802F0A1F8044634
:100AF0005349079808705349069808705249059859
:100B0000087000F087FF204600F051FF00F082FFE0
:100B10000021012000F022FF00F07CFF10BC5DF8F6
:100B200014FB10B5044646480078484948614548DA
:100B30000078086144480078C860454800788860BB
:100B40004448007848604448007808602C222046D9
:100B500002F08CFA10BD10B500F05CFF01210846D0
:100B600000F0FCFE00F056FF10BD10B500F052FF83
:100B70000021012000F0F2FE00F04CFF10BD704794
:100B800008B503208DF8000001208DF80100022037
:100B90008DF8020001208DF80300684600F071FC1A
:100BA00008BD10B501214FF0C05000F0D2F901206E
:100BB00001F091FE01F0EAFE012000F02AF900BFE9
:100BC000412000F08EF80028FAD04FF4807000F039
:100BD0003CF9012000F03FF900F025FF00F01AFF7A
:100BE0000121084600F0BAFE00F014FF47F6FF703E
:100BF00000F0EAFE00F00EFFFFF7C2FF10BD70B577
:100C00000021002200234FF46164B0FBF4F1B0FB3B
:100C1000F4F504FB15043C25B4FBF5F24FF46164D4
:100C2000B0FBF4F504FB15043C25B4FBF5F605FB1D
:100C30001643074D2970074D2A70074D2B7070BD64
:100C4000300000203100002032000020FC04002091
:100C5000330000203400002035000020DF48006809
:100C600040F00100DD49086008464068DC49084062
:100C7000DA49486008460068DA490840D749086000
:100C80000846006820F4802008600846406820F488
:100C9000FE0048604FF41F0088607047CF49096824
:100CA00021F48031CD4A11601146096821F4802178
:100CB0001160B0F5803F03D0B0F5802F0ED106E073
:100CC000C649096841F48031C44A116007E0C3494C
:100CD000096841F4A021C14A116000E000BF00BFD3
:100CE000704710B501460022002300204A11012A56
:100CF00002D1BA4C236806E0022A02D1B74C236A1B
:100D000001E0B64C636A01F01F02012494401C40CC
:100D10000CB1012000E0002010BD38B5002000908B
:100D20000024002500BF3120FFF7DBFF05460098B7
:100D3000401C00900098B0F5A06F01D0002DF2D0BB
:100D40003120FFF7CEFF08B1012400E00024204647
:100D500038BD01460020A14A106820F0F80040EAA2
:100D6000C10010607047A04908607047024600202B
:100D70009A4B586820F47C1042EA01031843974BC1
:100D80005860704798490866704701460020934AAA
:100D9000506820F003000843506070478F48406857
:100DA00000F00C007047014600208C4A506820F08B
:100DB000F00008435060704701460020874A5068A1
:100DC00020F4E06008435060704701460020834AE9
:100DD000506820F4605040EAC1005060704729B16B
:100DE0007E4A527A02437D4B5A7204E07B4A527A21
:100DF00082437A4B5A7270477B49D83108607047FA
:100E000001460020754A506820F440400843506075
:100E100070470021714A20321170704A82F8201008
:100E2000012802D004280AD104E001216B4A2032B3
:100E3000117005E00521694A2032117000E000BF01
:100E400000BF70476949086070476449096A0143F7
:100E5000624A11627047654944390860704730B58D
:100E600000210022002400235C4D6D6805F00C0178
:100E700021B1042905D0082923D105E05C4D056086
:100E800022E05B4D05601FE0544D6D6805F4701263
:100E9000524D6D6805F48034022505EB92421CB971
:100EA000544D554305600BE04C4D6D6805F400351D
:100EB0001DB1504D5543056002E04D4D5543056051
:100EC00002E04B4D056000BF00BF444D6D6805F06A
:100ED000F0010909484D6B5C0568DD4045603F4DF8
:100EE0006D6805F4E061090A434D6B5C4568DD40BF
:100EF00085603A4D6D6805F46051C90A3E4D6B5CE2
:100F00004568DD40C560354D6D6805F44041890B8D
:100F10003A4D6B5CC568B5FBF3F5056130BD29B191
:100F20002E4A526902432D4B5A6104E02B4A526902
:100F300082432A4B5A61704729B1284A9269024379
:100F4000264B9A6104E0254A92698243234B9A61B9
:100F5000704729B1214AD2690243204BDA6104E08B
:100F60001E4AD26982431D4BDA61704729B11B4A80
:100F7000D2680243194BDA6004E0184AD26882430F
:100F8000164BDA60704729B1144A12690243134BB9
:100F90001A6104E0114A12698243104B1A617047CA
:100FA00012494039086070470F49C86470470B49BF
:100FB000C87170470948406A40F08070074948622C
:100FC000704701460020054A92680A400AB1012094
:100FD00000E000207047014988727047001002400D
:100FE0000000FFF8FFFFF6FE00004242800442428C
:100FF00000127A0000093D00370000204700002061
:1010000010B50446CC48844208D101210420FFF7E2
:10101000ADFF00210420FFF7A9FF46E0C748844246
:1010200008D101210820FFF7A1FF00210820FFF7C8
:101030009DFF3AE0C248844208D101211020FFF709
:1010400095FF00211020FFF791FF2EE0BD4884425C
:1010500008D101212020FFF789FF00212020FFF780
:1010600085FF22E0B848844208D101214020FFF7E3
:101070007DFF00214020FFF779FF16E0B34884424E
:1010800008D101218020FFF771FF00218020FFF7A8
:101090006DFF0AE0AE48844207D101218015FFF7B9
:1010A00065FF0021A015FFF761FF10BD10B50121FC
:1010B0000846FFF75BFF00210120FFF757FF10BD37
:1010C0002DE9F041024600250026002000230024DF
:1010D000002791F803C00CF00F0591F803C00CF045
:1010E000100CBCF1000F03D091F802C04CEA0505CA
:1010F00091F800C0BCF1000F31D0146800202BE043
:101100004FF0010C0CFA00F3B1F800C00CEA030632
:101110009E4220D183004FF00F0C0CFA03F7BC4322
:1011200005FA03FC4CEA040491F803C0BCF1280F53
:1011300006D14FF0010C0CFA00FCC2F814C00AE012
:1011400091F803C0BCF1480F05D14FF0010C0CFA27
:1011500000FCC2F810C0401C0828D1D31460B1F8BC
:1011600000C0BCF1FF0F34DD546800202EE000F118
:10117000080C4FF0010808FA0CF3B1F800C00CEAB3
:1011800003069E4221D183004FF00F0C0CFA03F7A7
:10119000BC4305FA03FC4CEA040491F803C0BCF11B
:1011A000280F05D100F1080C08FA0CF8C2F81480D9
:1011B00091F803C0BCF1480F07D100F1080C4FF0C3
:1011C000010808FA0CF8C2F81080401C0828CED399
:1011D0005460BDE8F0814FF6FF71018002218170FB
:1011E0000421C17070470246002093680B400BB188
:1011F000012000E0002070470146886880B27047F7
:1012000002460020D3680B400BB1012000E0002013
:1012100070470146C86880B27047016170474161FC
:1012200070470AB1016100E041617047C1607047D9
:101230004FF480320A4382618161826182698269EE
:10124000704702460020434B18684FF680731840E1
:1012500040EA021008433F4B186070473E49C8619E
:101260007047F0B50A46002300240021002500F055
:101270000046B6F1004F02D1364EF16901E0354E1D
:101280007168C0F3034583B200F44016B6F5401F01
:1012900008D121F070612F4E766826F070662D4FD0
:1012A0007E6012E000F48016B6F5801F06D103269A
:1012B00006FA05F4A14341F0706106E0460D3601DF
:1012C00003FA06F6B14341F0706122B1460D3601D2
:1012D00003FA06F6314300F00046B6F1004F02D1A2
:1012E0001C4EF16101E01B4E7160F0BD30B5002273
:1012F0008B071C0F0F2303FA04F2164B08338C10D4
:1013000053F824309343134C08348D1044F825309F
:1013100023468C1053F824308C07240F00FA04F471
:1013200023430C4C08348D1044F8253030BD0A4955
:10133000DC3108607047000000080140000C0140EB
:10134000001001400014014000180140001C014041
:1013500000200140000001400000204200204449DC
:101360000860091D0860091D0860091D08604148E2
:101370003F4914310860704700213D498279002AB5
:101380003AD00A46126803689A430B461A600A1D4F
:10139000126803689A430B1D1A60027911440A68A7
:1013A00003681A430A60324A0832126803689A4393
:1013B0002F4B08331A601A1D126803689A432C4B8E
:1013C0000C331A604279102A0ED11A1F1268036872
:1013D0001A43274B08331A601A1D126803681A4310
:1013E000234B0C331A600DE02149427911440A68FD
:1013F00003681A430A6005E0027911440A68036829
:101400009A430A6070470021016001710C2141710B
:101410000021817170471649103109680143144A4F
:1014200010321160704701460020114A14321268D0
:101430000A400AB1012000E0002070470C49143135
:1014400008607047014600200022094B1B6803EA30
:101450000102074B14331B680B4013B10AB1012082
:1014600000E0002070470249143108607047000016
:1014700000040140FFFF0F0031490143314A116070
:10148000704770B5002100230F22C47804B32D4C9F
:10149000246804F4E064C4F5E064210AC1F10403A3
:1014A000CA40447804FA03F18478144021430901C6
:1014B000254C0678A155047804F01F050124AC40A2
:1014C00005786D11AD0005F1E025C5F8004109E092
:1014D000047804F01F050124AC401C4D06787611F9
:1014E00045F8264070BD1A4A0A400243154B1B1F9F
:1014F0001A60704739B1134A121D12680243114B2A
:101500001B1D1A6006E00F4A121D126882430D4B24
:101510001B1D1A607047042808D14FF0E0210969AB
:1015200041F004014FF0E022116107E04FF0E021AB
:10153000096921F004014FF0E022116170470000B9
:101540000000FA050CED00E000E400E080E100E0BE
:1015500080FFFF1F10B50446FB48844209D10121DA
:101560008803FFF703FD00214FF48040FFF7FEFCE6
:1015700032E0F648844209D101214804FFF703FD17
:1015800000214FF40030FFF7FEFC25E0F0488442D4
:1015900009D101218804FFF7F6FC00214FF48020D7
:1015A000FFF7F1FC18E0EB48844209D10121C8049F
:1015B000FFF7E9FC00214FF40020FFF7E4FC0BE00B
:1015C000E548844208D101210805FFF7DCFC002131
:1015D0004FF48010FFF7D7FC10BD2DE9F04786B01F
:1015E00005460E460024A24600BFA1460027B0894A
:1015F00000B100BF2F462C8A4CF6FF700440F088E3
:1016000004432C82AC894EF6F3100440B088318933
:101610000843718908430443AC81AC8A4FF6FF400C
:101620000440B0890443AC8201A8FFF718FCC64807
:10163000874202D1DDF810A001E0DDF80CA0A889F6
:1016400000F4004040B10AEBCA0000EB0A10316818
:101650004900B0FBF1F807E00AEBCA0000EB0A1002
:1016600031688900B0FBF1F86420B8FBF0F00401A8
:101670002009642101FB1089A88900F4004040B1D1
:10168000322000EBC900B0FBF1F000F0070004438A
:1016900008E0322000EB09106421B0FBF1F000F00B
:1016A0000F0004432C8106B0BDE8F0874FF41651BB
:1016B000016000218180C18001810C2141810021D4
:1016C0008181704710B502460020108A4FF2FF0357
:1016D00018400B884C8823438C882343CC882343B1
:1016E0001843108210BD0021018041808180C1809B
:1016F000704721B1828942F40052828104E08289DC
:101700004DF6FF731A4082817047F0B503460024FE
:1017100000260025002040F66A17B94200D100BF1C
:101720001846C1F3421401F01F06012707FA06F517
:10173000012C01D10C3004E0022C01D1103000E06A
:1017400014301AB107682F43076002E00768AF43FF
:101750000760F0BD1AB1838A0B43838202E0838A5B
:101760008B4383827047028A4FF6F0731A400282DD
:10177000028A0A430282704782894FF2FF731A403D
:10178000828182890A438281704721B1828942F035
:101790000202828104E082894FF6FD731A40828141
:1017A0007047028A4FF6DF731A400282028A0A43A8
:1017B0000282704721B1028A42F48042028204E030
:1017C000028A4BF6FF731A4002827047C1F3080287
:1017D0008280704701468888C0F30800704781897D
:1017E00041F0010181817047028BD2B20283028BEA
:1017F00042EA012202837047028B02F47F42028395
:10180000028B0A430283704721B1828A42F0200290
:10181000828204E0828A4FF6DF731A408282704728
:1018200021B1828A42F01002828204E0828A4FF65D
:10183000EF731A408282704721B1828A42F0080217
:10184000828204E0828A4FF6F7731A4082827047E0
:1018500021B1828942F40042828103E08289C2F38D
:101860000E028281704721B1828A42F40062828234
:1018700004E0828A4FF2FF731A4082827047828AA4
:101880004FF6FB731A408282828A0A438282704733
:1018900021B1828A42F00202828204E0828A4FF6FB
:1018A000FD731A408282704702460020B1F5007F26
:1018B00000D100BF13880B400BB1012000E00020D5
:1018C000704701F40072B2F5007F00D100BFCA4337
:1018D0000280704770B502460024002300250020D6
:1018E00040F66A16B14200D100BFC1F3421501F0C3
:1018F0001F03012606FA03F3012D02D19689334016
:1019000006E0022D02D1168A334001E0968A334068
:101910000C12012606FA04F41688344013B10CB1F7
:10192000012000E0002070BD10B50022002340F629
:101930006A14A14200D100BF0A1201249440A3B24C
:10194000DC43048010BD000000380140004400402A
:1019500000480040004C00400050004029B1504A6F
:10196000128802434E4B1A8004E04D4A128882438B
:101970004B4B1A8070474A48001D008840F0100009
:101980004749091D088070474548001D00884FF6EB
:10199000EF7108404249091D088070470021404806
:1019A0001C300188001F008841EA0040704700B5E4
:1019B0000246FFF7E0FF100C394918310880091D75
:1019C0000A80FFF7E1FF00BD00B50246FFF7D3FF35
:1019D000C2F30340324908310880091D0A80FFF72D
:1019E000D3FF00BD00B50246FFF7C5FF100C2C4920
:1019F00020310880091D0A80FFF7C6FF00BD0020C6
:101A00002749103109880907080B2549143109882D
:101A10000843704700BF2248001D008800F02000E6
:101A20000028F8D070471E48001D00884FF6F77157
:101A300008401B49091D088000BF1948001D008887
:101A400000F008000028F8D0704701460020144A32
:101A5000121D12880A400AB1012000E000207047E0
:101A60000F49091D098881430D4A121D11807047D5
:101A7000014600200A4A121D12880A40D0B2084AC4
:101A800012880A4012B108B1012000E0002070471E
:101A90000349091D09888143014A121D11807047BD
:101AA0000028004010B50446FE48844208D10121B8
:101AB000C014FFF75BFA0021E014FFF757FAC4E007
:101AC000B4F1804F08D101210846FFF75CFA0021EC
:101AD0000120FFF758FAB8E0F348844208D1012109
:101AE0000220FFF750FA00210220FFF74CFAACE089
:101AF000EE48844208D101210420FFF744FA002176
:101B00000420FFF740FAA0E0E948844208D101210F
:101B10000820FFF738FA00210820FFF734FA94E094
:101B2000E448844208D101211020FFF72CFA00215B
:101B30001020FFF728FA88E0DF48844208D101210D
:101B40002020FFF720FA00212020FFF71CFA7CE07C
:101B5000DA48844208D101214014FFF707FA002136
:101B60006014FFF703FA70E0D548844209D10121DF
:101B7000C804FFF7FBF900214FF40020FFF7F6F946
:101B800063E0D048844209D101210805FFF7EEF94E
:101B900000214FF48010FFF7E9F956E0CA4884426B
:101BA00009D101214805FFF7E1F900214FF40010A8
:101BB000FFF7DCF949E0C548844208D10121402003
:101BC000FFF7E1F900214020FFF7DDF93DE0C048D3
:101BD000844208D101218020FFF7D5F9002180201F
:101BE000FFF7D1F931E0BB48844208D101218015CB
:101BF000FFF7C9F90021A015FFF7C5F925E0B648A0
:101C0000844209D101210804FFF7B0F900214FF403
:101C10008030FFF7ABF918E0B048844209D10121C8
:101C20004804FFF7A3F900214FF40030FFF79EF9B5
:101C30000BE0AB48844208D101218804FFF796F9F4
:101C400000214FF48020FFF791F910BD0022028897
:101C5000944B98420ED0994B98420BD0B0F1804FE4
:101C600008D0914B984205D0904B984202D0904BAF
:101C7000984204D14FF68F731A404B881A438D4B0C
:101C8000984207D08C4B984204D04FF6FF431A403D
:101C9000CB881A4302808B8883850B880385814B10
:101CA00098420BD0854B984208D08B4B984205D078
:101CB0008A4B984202D08A4B984201D10B7A038614
:101CC00001238382704770B5002400220023058C15
:101CD0004FF6FE7635400584028C8388048B4FF6E0
:101CE0008F752C40B51E2C400D882C43751E2A4044
:101CF0000D892A434D882A436A4DA8420BD06F4D67
:101D0000A84208D0744DA84205D0744DA84202D014
:101D1000734DA84213D14FF6F7752A404D892A43D7
:101D20004FF6FB752A408D882A434FF6FF652B40FE
:101D30004FF6FF552B408D892B43CD892B43838054
:101D40000483CD888586028470BD70B5002400228E
:101D50000023058C4FF6EF7635400584028C83888E
:101D6000048B48F6FF752C404FF6FF452C400D883C
:101D70004FF6FF7606EA05252C434FF6DF752A401D
:101D80000D8906EA05152A434D8806EA05152A43FA
:101D9000444DA84202D0494DA8421DD14FF67F754F
:101DA0002A404D894FF6FF7606EA05152A434FF67D
:101DB000BF752A408D8806EA05152A434FF6FF3580
:101DC0002B404FF2FF752B408D8906EA85052B438A
:101DD000CD8906EA85052B4383800483CD8805875A
:101DE000028470BD70B5002400220023058C4FF6DC
:101DF000FF6635400584028C8388848B4FF68F758F
:101E00002C404FF6FC752C400D882C434FF6FF55A7
:101E10002A400D894FF6FF7606EA05252A434D88AC
:101E200006EA05252A431F4DA84202D0234DA842A9
:101E30001DD14FF2FF752A404D894FF6FF7606EA15
:101E400005252A434FF6FF352A408D8806EA0525E9
:101E50002A434EF6FF752B404DF6FF752B408D89BA
:101E600006EA05152B43CD8906EA05152B43838029
:101E70008483CD888587028470BD70B500220023DD
:101E80000024058C4EF6FF7635400584038C84884B
:101E9000828B48F6FF752A404FF6FF452A400D8891
:101EA00020E00000002C0140000400400008004039
:101EB000000C0040001000400014004000340140BD
:101EC000004C014000500140005401400018004007
:101ED000001C004000200040004001400044014040
:101EE000004801404FF6FF7606EA05252A434DF6E5
:101EF000FF752B400D8906EA05352B434D8806EA10
:101F000005352B43FA4DA84202D0FA4DA84208D11C
:101F10004BF6FF752C408D894FF6FF7606EA851546
:101F20002C4384808283CD88A0F84050038470BD08
:101F3000828B4FF2FF331A408283828B4FF6FF73FE
:101F400003EA01231A4382837047F0B50C46154615
:101F5000002200210026078C4EF6FF7C07EA0C07C2
:101F60000784828B018C4FF6FF7707EA043640F630
:101F7000FF473A404FF6FF7707EA05273A434FF607
:101F8000FF7707EA03373A43D94FB8420ED0D94F0B
:101F9000B8420BD0B0F1804F08D0D74FB84205D02F
:101FA000D64FB84202D0D64FB84206D14DF6FF7791
:101FB000394046F48057394305E047F6FF5739402A
:101FC00044F48057394382830184F0BD828B4FF6FD
:101FD000F3731A408283828B0A4382837047F0B581
:101FE0000C461546002200210026078C4FF6FF6C98
:101FF00007EA0C070784828B018C4FF6FF7707EA0C
:1020000004264FF60C773A404FF6FF7707EA03179E
:102010002F433A43B64FB8420ED0B64FB8420BD01A
:10202000B0F1804F08D0B44FB84205D0B34FB8429A
:1020300002D0B34FB84206D14FF6FF57394046F4AD
:102040008077394305E04FF2FF57394044F48077F9
:10205000394382830184F0BD028B4FF2FF331A4073
:102060000283028B4FF6FF7303EA01231A430283B4
:102070007047F0B50C461546002200210026078C5B
:102080004FF6EF7C07EA0C070784028B018C4FF6B2
:10209000FF7707EA041640F6FF473A404FF6FF770E
:1020A00007EA03373A434FF6FF7707EA05273A4333
:1020B0008F4FB8420ED08F4FB8420BD0B0F1804F47
:1020C00008D08D4FB84205D08C4FB84202D08C4F0B
:1020D000B84206D14FF6DF77394046F01007394352
:1020E00005E04FF65F77394044F01007394302832B
:1020F0000184F0BD028B4FF6F3731A400283028B0A
:102100000A4302837047F0B50C46154600220021B1
:10211000068C4FF6FE773E400684028B018C4FF60C
:102120000C7632407E1C06EA03162E433243704E74
:10213000B0420ED06F4EB0420BD0B0F1804F08D0FD
:102140006D4EB04205D06D4EB04202D06C4EB042E2
:1021500006D14FF6FD76314044F00106314305E0EB
:102160004FF6F576314044F0010631430283018495
:10217000F0BD70B505460C465D4885420ED05D4801
:1021800085420BD0B5F1804F08D05B48854205D021
:102190005A48854202D05A48854200D100E000BF2B
:1021A000208850B92389A28861882846FFF7ABFFB1
:1021B000E1882846FFF79EFF25E0208804280AD101
:1021C0002389A28861882846FFF753FFE1882846C3
:1021D000FFF742FF17E0208808280AD12389A28848
:1021E00061882846FFF7FBFEE1882846FFF7EEFEF0
:1021F00009E02389A28861882846FFF7A6FEE188C6
:102200002846FFF795FE70BD2DE9F04105460C46C6
:1022100000260127608808B9022600E00026A08871
:10222000012801D1022700E001272088A0B92389D5
:10223000A28861882846FFF766FFE1882846FFF7F5
:1022400059FF23893A4631462846FFF712FFE188B5
:102250002846FFF701FF13E02389A28861882846FA
:10226000FFF707FFE1882846FFF7F6FE23893A4685
:1022700031462846FFF747FFE1882846FFF73AFF37
:10228000BDE8F0810A884B881A438B881A43CB88B3
:102290001A430B891A434B891A438B891A43A0F8B6
:1022A000442070474FF6FF71818000210180C1807A
:1022B0004180017270470021018041808180C1808E
:1022C000018141818181C18170470021018041806C
:1022D000012181800021C18001817047002101809E
:1022E00041808180C18001814181818170470000EE
:1022F000002C014000340140000400400008004070
:10230000000C004021B1028842F00102028004E08A
:1023100002884FF6FE731A400280704731B1B0F860
:10232000442042F40042A0F8442005E0B0F84420E4
:10233000C2F30E02A0F8442070471AB183890B4300
:10234000838102E083898B43838170478182704758
:1023500041EA0203A0F8483070471AB183890B4361
:10236000838102E083898B438381704701894FF623
:10237000F8721140018170470A46002101894FF629
:102380008F73194011430181704730B504460D46E3
:1023900029462046FFF7F0FF208940F00700208102
:1023A00030BD2DE9F04104460D4616461F46602D0E
:1023B00006D13B46012231462046FFF75AFE05E092
:1023C0003B46012231462046FFF79DFE2946204626
:1023D000FFF7D2FF208940F007002081BDE8F0819F
:1023E00030B50C4600210189C9B24FF6FF7505EAE8
:1023F0000325154325432943018130BD2DE9F041D3
:1024000005460E4617469846002443463A4631464E
:102410002846FFF7E5FF2C894FF6F870044044F09A
:1024200007044FF68F70044044F070042C81BDE81F
:10243000F081F0B504460D4616461F463B4632462F
:1024400029462046FFF7CCFF208940F480402081B8
:10245000F0BD0185828270470A46002101884FF64F
:102460008F731940114301807047F0B50C46154633
:102470001E460021002200230189028B038C4FF6A7
:10248000F877394021434FF6FC473A4040F20117B4
:102490003A434FF6DD773B404FF6FF7707EA0617E2
:1024A0002F433B43018102830384F0BD0A46002190
:1024B000018B4FF68F7319401143018370470A4611
:1024C0000021018B48F6FF7319404FF6FF7303EAB2
:1024D00002231943018370470A460021818B4FF67E
:1024E0008F7319401143818370470A460021818B05
:1024F00048F6FF7319404FF6FF7303EA02231943AE
:102500008183704721B1028842F08002028004E09A
:1025100002884FF67F731A400280704721B182888B
:1025200042F00402828004E082884FF6FB731A4076
:102530008280704721B1828842F00802828004E0E4
:1025400082884FF6F7731A408280704721B18288E3
:1025500042F00102828004E082884FF6FE731A4046
:10256000828070470A460021018B4FF6F7731940AD
:102570001143018370470A460021018B4FF2FF731C
:1025800019404FF6FF7303EA022319430183704792
:102590000A460021818B4FF6F7731940114381835E
:1025A00070470A460021818B4FF2FF7319404FF6A6
:1025B000FF7303EA02231943818370470A4600210F
:1025C000018B4FF6FB7319401143018370470A4694
:1025D0000021018B4FF6FF3319404FF6FF7303EADA
:1025E00002231943018370470A460021818B4FF66D
:1025F000FB7319401143818370470A460021818B88
:102600004FF6FF3319404FF6FF7303EA02231943D5
:10261000818370470A460021018B4FF67F73194072
:102620001143018370470A460021018BC1F30E015B
:102630004FF6FF7303EA02231943018370470A46EA
:102640000021818B4FF67F731940114381837047BE
:102650000A460021818BC1F30E014FF6FF7303EA96
:1026600002231943818370470A460021018C4FF6EB
:10267000FD7319401143018470470A460021018C03
:102680004FF6F77319401143018470470A46002141
:10269000018C4FF6DF7319404FF6FF7303EA021304
:1026A0001943018470470A460021018C4FF67F735D
:1026B00019404FF6FF7303EA021319430184704770
:1026C0000A460021018C4FF6FF5319404FF6FF7365
:1026D00003EA02231943018470470A460021018C52
:1026E0004FF2FF7319404FF6FF7303EA02231943B9
:1026F000018470470A460021018C4DF6FF73194092
:102700004FF6FF7303EA023319430184704730B573
:10271000002301248C40A3B2048C9C430484048CC9
:1027200002FA01F5ADB22C43048430BD30B500236C
:1027300004248C40A3B2048C9C430484048C02FACD
:1027400001F5ADB22C43048430BD70B503460020C2
:1027500000241846183001258D40ACB21D8CA543CD
:102760001D8409B1082909D100EB6100056825F035
:10277000700505600568154305600EE00D1FC5F383
:102780004E052844056825F4E045056005684FF6C8
:10279000FF7606EA02263543056070BD21B1028846
:1027A00042F00202028004E002884FF6FD731A40F4
:1027B0000280704721B1028842F00402028004E0E6
:1027C00002884FF6FB731A400280704721B182885D
:1027D00042F08002828004E082884FF67F731A40C4
:1027E0008280704702884FF6F7731A400280028891
:1027F0000A430280704782884FF68F731A408280A6
:1028000082880A438280704702894FF6F8731A4023
:10281000028102890A430281704702894FF67F7361
:102820001A40028102890A430281704781847047FD
:10283000818570478186704701877047818770471F
:10284000A0F84010704702884FF6FF431A400280FC
:1028500002880A43028070470146888E704701460D
:10286000088F70470146888F70470146B1F84000D5
:1028700070470146888C70470146088D70470246B4
:102880000020138A0B400BB1012000E000207047AC
:10289000CA430282704730B502460020002300245C
:1028A000158A05EA0103958905EA010413B10CB103
:1028B000012000E0002030BDCA43028270470000C2
:1028C00010B501210807FEF75EFB00214FF0805094
:1028D000FEF759FB10BD2A49086270472849086174
:1028E000704701460020274A106820F0E0000843A6
:1028F000106070472249A0310860704710B5024649
:102900000020204B186820F00300104318601E4B75
:102910001B6843F004031C4C2360012901D130BF24
:1029200000E020BF184B1B6823F00403164C236003
:1029300010BD1448006840F00400124908600846C1
:10294000006840F0020008600F48006840F0040092
:102950000D49086000BF00BF30BF7047014600202E
:10296000084A52680A400AB1012000E0002070477E
:102970000449096841EA8001024A11607047000079
:1029800000000E420070004010ED00E010B5012084
:10299000FEF706FB0020FEF703FB10BD2A49086086
:1029A00070472949091F086070472749843108602A
:1029B000704701460020254A10884FF67F4210409C
:1029C0000843224A10807047014600201F4A1088A1
:1029D0004FF68072104008431C4A1080704708B5BB
:1029E00000220092194A2C3A0092009A0244009266
:1029F000009A116008BD08B50146002000901348F8
:102A00002C3800900098084400900098008808BD79
:102A10000D489C300068C0B270470C4808300088F0
:102A200040F0010009490831088070470648A0308D
:102A30000068C0B2704705480830008840F00200C6
:102A4000024908310880704704860D422C6C004012
:102A50000CB50020019000906C48006840F4803074
:102A60006A49086000BF6948006800F400300090BF
:102A70000198401C0190009818B90198B0F5A06F1A
:102A8000F1D16248006800F4003010B101200090DC
:102A900001E0002000900098012843D15C480068C4
:102AA00040F010005A4908600846006820F0030012
:102AB00008600846006840F002000860534840681B
:102AC000524948600846406848600846406840F4FB
:102AD000806048600846406820F47C1048600846E2
:102AE000406840F4E81048600846006840F0807094
:102AF000086000BF4548006800F000700028F9D069
:102B00004248406820F00300404948600846406859
:102B100040F00200486000BF3C48406800F00C00F4
:102B20000828F9D10CBD10B5FFF792FF10BD10B504
:102B30003648006840F001003449086008464068A3
:102B40003449084031494860084600683249084025
:102B50002E4908600846006820F480200860084676
:102B6000406820F4FE0048604FF41F008860FFF7C3
:102B7000DAFF4FF000602949086010BD10B5002150
:102B800000200022214B5B6803F00C0121B10429D5
:102B900006D0082928D107E0214B224C236027E0EA
:102BA0001F4B204C236023E0184B5B6803F470102C
:102BB000164B5B6803F48032022303EB904022B98A
:102BC000194B4343174C23600DE0104B5B6803F433
:102BD000003323B1144B4343124C236003E0104BEA
:102BE0004343104C236003E00D4B0E4C236000BFA9
:102BF00000BF064B5B68C3F303130C4CE15C094B4D
:102C00001B68CB40074C236010BD00000010024041
:102C1000002002400000FFF8FFFFF6FE08ED00E094
:102C200000127A004C00002000093D0050000020F6
:102C300038B5D0E90221491E01EB410102EBC10187
:102C40004268C1EB011102EB81010268C1EB011185
:102C500002EB8102D0E9043101EB410103EB810178
:102C60003023A1F5527191FBF3F4174D6C4302EB45
:102C7000C41291FBF3F403FB141100921A2902DB36
:102C8000124B1A4400920C2291FBF2F3104C634356
:102C9000009C04EBC313009391FBF2F302FB1311AE
:102CA0000C4A08E0491E40F2A324535C6343009C95
:102CB00004EBC31300930029F4DC0146684600F0DE
:102CC000FFFA009838BD00003F0C0F008051010052
:102CD00067C203005E41000870B5054601B90721CF
:102CE000541A241DB4F5B67F09DD286800F036F9C2
:102CF000A04204DC2868401C2860012070BD002C24
:102D000005DA2868401E286000F028F904440720EE
:102D100094FBF0F0401C70BD2DE9F04F89B01D46CA
:102D20008A468046002401AF4FF0070B01920790BE
:102D300057F8241011F8010B47F8241048B1252842
:102D40000DD0BAF1010F06D908F8010BAAF1010A5A
:102D50005CE0641E5AE0002009B0BDE8F08F11F875
:102D6000010B47F824100028F3D002264FF0300959
:102D70005A284BD020DC4D2873D014DC442871D065
:102D800008DC2528DDD041282AD042282ED043282F
:102D90003CD130E0462847D0472857D0482862D059
:102DA000492833D161E0523808282FD2DFE800F0FB
:102DB000787AA6838A97A6A86138192826D2DFE8F0
:102DC00000F00D1318202E253513255C2525606491
:102DD0002566256D257375258B9BA0006AA000E0F4
:102DE00070A0A9690091B4E07DA000E0884829693D
:102DF000F8E788A007E06969642091FBF0F01330E0
:102E000082E0E86880E0641C47F82400002C8FDA38
:102E1000002088F800000799A8EB01009CE7E8680B
:102E20004FF02009009070E07EA0ECE7686900F2A6
:102E30006C700090D5E906126846FFF74DFF0099C7
:102E4000642091FBF0F200FB12105DE0686904263B
:102E500000F26C700090D5E906126846FFF73CFF5F
:102E600053E010E048E0A8684EE0A8680C21173055
:102E700090FBF1F201FB120001E0E8690326401C1F
:102E800042E02869FBE768683EE069A0BBE7A86804
:102E90000C2801DA67A0B6E767A0B4E767A0B2E73D
:102EA00069A0B0E728682FE069A0ACE7A86901260F
:102EB00008BB072028E0D5E90610401AC01D90FB8A
:102EC000FBF021E0686900F26C700090D5E9061211
:102ED0006846FFF701FF17E00126A86914E0A96919
:102EE0005846891D91FBF0F20BFB1211EA69511A49
:102EF000C91D91FBFBF007E056A084E758A082E7CC
:102F00000426686900F26C70009000218DF818109A
:102F100006A80A2113E0009A92FBF1F301FB1322A9
:102F2000303200F8012D009A92FBF1F2009232B992
:102F300001E000F8019D321EA6F10106F9DC321E07
:102F4000A6F10106E7DC5EE710F8011B0029FBD1C2
:102F500000994A1E00920029F6DC54E781070CD143
:102F6000642190FBF1F201FB120151B94FF4C871D9
:102F700090FBF1F201FB120018B1002000F26D107D
:102F800070470120FAE7000053756E004D6F6E0028
:102F90005475650057656400546875004672690091
:102FA0005361740053756E646179004D6F6E646196
:102FB000790054756573646179005765646E657353
:102FC000646179005468757273646179004672694E
:102FD0006461790053617475726461790000000066
:102FE0004A616E00466562004D6172004170720078
:102FF0004D6179004A756E004A756C004175670035
:10300000536570004F6374004E6F76004465630033
:103010006C4100082561202562202565202554206B
:103020002559000025592D256D2D2564000000002F
:103030000A000000414D0000504D000025493A258E
:103040004D3A25532025700025483A254D000000B3
:1030500009000000256D2F25642F25790000000050
:1030600025483A254D3A25530000000040EA010367
:103070009B0703D009E008C9121F08C0042AFAD22E
:1030800003E011F8013B00F8013B521EF9D27047F2
:10309000F0B480EA0102D40F4200B2EB410F02D239
:1030A0000246084611464A0042D0C30DDDB2C1F3C4
:1030B000C752AD1A202D35DAC1F3160141F40002D2
:1030C00004B15242C5F1200602FA06F12A41104429
:1030D000B3EBD05F23D0C4B1012DA0EBC35009DC0A
:1030E000F0BC4FF0004202EAC352DBB200F5000030
:1030F00000F035B9400000F1807000EBC350A0F142
:10310000807040EAD170490009E0490841EAC07185
:10311000A0EBC35000F50000400800EBC350F0BC2A
:1031200000F014B96142012202EB4101001BF6E7F5
:10313000F0BC704781F00041AAE780F00040A7E7AB
:1031400030B480EA010202F0004530F0004221F084
:10315000004013D090B1C30DD40DC2F31601C0F3DB
:103160001600E41A41F4000140F400027D3491425B
:1031700001D3641C00E04900002C02DA30BC0020BE
:1031800070474FF400000023914201D3891A034392
:1031900040084FEA4101F7D151B1914202D14FF0BD
:1031A000004105E002D24FF0010101E06FF00101A2
:1031B00003EBC450284430BC00F0C8B8C10F80EA0B
:1031C000E0700844CA079623002100F0C8B896238F
:1031D0000022114600F0C3B800F0004220F0004089
:1031E000C10DC0F3160040F400007F2901DA002071
:1031F0007047962903DCC1F19601C84001E0963979
:103200008840002AF4D04042704700F0004230F07D
:1032100000400AD0C10D01F56071C0F3160042EA0A
:103220000151C20840071143704700200146704712
:1032300030B50B46014600202022012409E021FA86
:1032400002F59D4205D303FA02F5491B04FA02F583
:103250002844151EA2F10102F1DC30BD2DE9F05F1A
:103260000546002092469B468846064681464024F5
:103270001BE0284641464746224600F078FA53466E
:103280005A46C01A914110D311461846224600F002
:103290005FFA2D1A67EB01084F46224601200021F4
:1032A00000F056FA17EB00094E41201EA4F101046C
:1032B000DFDC484631462A464346BDE8F09F000021
:1032C00010B500683C22B0FBF2F302FB1303B0FB25
:1032D000F2F00B60B0FBF2F302FB1303B0FBF2F071
:1032E00018224B60B0FBF2F302FB1303B0FBF2F0C9
:1032F000021D8B600723B2FBF3F403FB1422800052
:1033000040F2B55300F66C308A61B0FBF3F2B0FBCB
:10331000F3F403FB1400443280084A61C8613B287F
:1033200002D3920700D0401C0022074C13460A61CA
:10333000E25C824203D8801A5B1C0B61F8E7401CF8
:10334000C860084610BD0000C24100080029A8BF9F
:103350007047401C490008BF20F00100704710B4BE
:10336000B0FA80FC00FA0CF050EA010404BF10BC73
:10337000704749B1CCF1200421FA04F411FA0CF1A0
:1033800018BF012121430843A3EB0C01CB1D4FEAD9
:1033900000614FEA102042BF002010BC704700EBD4
:1033A000C35010440029A4BF10BC7047401C490002
:1033B00008BF20F0010010BC70472DE9FE4F804689
:1033C00081EA0300C00F0C46009021F0004123F079
:1033D0000045B8EB0200A94105D24046214690467F
:1033E0001C460B46024623F00040104347D0270DF1
:1033F000C7F30A00C3F30A510290401A0190402813
:103400006BDAC3F3130040F4801B0098924620B19E
:103410000023D2EB030A63EB0B0B01985946C0F172
:103420004002504600F094F906460D465046594673
:10343000019A00F0ACF910EB08006141002487EA22
:10344000115284EAE7731A4340D0009A62B3019A9A
:10345000012A4FEA075215DC001B61EB02014FF015
:10346000004202EA0752CDE90042001C41F58011FA
:1034700032462B4600F0ACF903B0BDE8F08F404671
:103480002146F9E7001B61EB0201001C41F58013A6
:1034900000185B412018A2F5001747EB030140EA32
:1034A000D570B6196D4111E06D084FEA360645EA50
:1034B000C0754FEA0752001B61EB0201001C41F589
:1034C000801149084FEA30000019514132462B461D
:1034D00003B0BDE8F04F00F06CB900980122400045
:1034E0000023D0EB020263EBE073009821464FEA21
:1034F000E074B8EB000061EB0401E9E783F00043FE
:103500005BE781F0004158E72DE9FE4F81EA0304B3
:1035100004F0004421F0004100944FF0000B23F030
:10352000004350EA01045ED052EA03045BD0C3F3C7
:103530000A54C1F30A552C44A4F2F3340194A0FBBD
:103540000254C1F3130141F48011C3F3130343F494
:10355000801301FB024400FB034E840A970A44EAED
:10356000815447EA8357A4FB076802958D0A05FB3F
:1035700007854FEA932C04FB0C542705029D4FEA64
:10358000065847EA1637B5EB08056EEB070C870EB1
:10359000920E47EA811742EA8312A7FB0201B6EBBB
:1035A0000B0164EB00042B0D43EA0C335E1844EB73
:1035B0001C50DA465146E7FB0201C5F313044FEAFB
:1035C0000B3343EA14534FEA0432019C43EA0603E7
:1035D000A4F10C040294009CCDE900B400F0F8F8CA
:1035E00003B0BDE8F08F00200146F9E72DE9F04D6A
:1035F00081EA030404F0004B21F0004514464FF02B
:10360000000A23F0004150EA050220D054EA0102EA
:103610001DD0C5F30A570246C5F31303C1F31300C7
:10362000C1F30A5640F4801543F48013A7EB060853
:10363000101BD64608F2FD3873EB050002D308F1E3
:10364000010801E092185B41B8F1000F03DA002095
:103650000146BDE8F08D00204FF4801106468446F7
:103660000EE0171B73EB050705D3121B63EB050375
:1036700006434CEA010C49084FEA300092185B41BE
:1036800050EA0107EDD152EA030012D082EA0400A9
:1036900083EA0501084305D0101BAB4106D2012285
:1036A000002306E000224FF0004302E06FF0010229
:1036B00053101AEB06004CEB085110EB0A0041EBDB
:1036C0000B01BDE8F04D00F074B8C1F30A52C1F32C
:1036D000130140F2FF3341F480119A4202DA0020D4
:1036E0000146704740F233439A42A2F2334202DC71
:1036F000524200F03CB800F02BB8000030B5041E78
:1037000071F1000404DB4FF00044404264EB01011E
:10371000141E73F1000405DB1C464FF000435242B7
:1037200063EB0403994208BF904230BD064C074D3D
:1037300006E0E06840F0010394E807009847103481
:10374000AC42F6D3FCF7F8FCD0410008F041000889
:10375000202A04DB203A00FA02F100207047914051
:10376000C2F1200320FA03F3194390407047202A46
:1037700004DB203A21FA02F00021704721FA02F31B
:10378000D040C2F120029140084319467047202AD8
:1037900006DBCB17203A41FA02F043EAE07306E079
:1037A00041FA02F3D040C2F1200291400843194689
:1037B000704710B5141E73F1000408DA401C41F183
:1037C000000192185B411A4301D120F0010010BDA5
:1037D0002DE9F04D92469B4611B1B1FA81F202E01B
:1037E000B0FA80F220329046FFF7B2FF04460F464F
:1037F00040EA0A0041EA0B0153465A46084313D0F7
:10380000114653EA010019D0C8F140025046FFF7B3
:10381000AEFF05460E46504659464246FFF798FF12
:10382000084305D0012004E020463946BDE8F08D6C
:103830000020054346EAE0762C4337430A986305A7
:10384000E40AA0EB08000022FD0A44EA47540A30CB
:1038500002D500200146E9E7010510196941DDE9BB
:10386000084500196941BDE8F04DA2E70FB4054BCA
:1038700010B503A9044A029800F0DAF810BC5DF80C
:1038800014FB0000330A00086000002002E008C8B2
:10389000121F08C1002AFAD170477047002001E0CA
:1038A00001C1121F002AFBD1704700002DE9FF5F04
:1038B00082B00021DDE90430020DDDF840B00343A1
:1038C00018D044F61050A2F2FF324243151411985A
:1038D00001281FD0A5EB0B00401C5FEA000A4FF047
:1038E00000064E4FDFF83891B046504615D5CAF164
:1038F000000413E0119801244AA3012801D16FEAC2
:103900000B010298119AC0E90031C0E9024206B0E9
:10391000BDE8F09FCBF10000DFE704460021404AFC
:10392000491842EB0450CDE9001012E0E00707D03F
:1039300032463B4640464946FFF7E6FD804689460B
:1039400032463B4610461946FFF7DEFD06460F4657
:103950006410002CEAD1DDE90401DDE90023BAF1AD
:10396000000F06DAFFF7D0FD42464B46FFF7CCFDCD
:1039700005E0FFF73BFE42464B46FFF737FE0446A5
:103980000E460022284BFFF7B9FE03D84FF0FF3058
:10399000014607E00022254B20463146FFF70DFD8A
:1039A000FFF793FE102409E0002C0ADB0A22002313
:1039B000FFF754FC039B30321A55641E50EA010293
:1039C000F2D1641C039AC4F111031444119A012A20
:1039D00003D0012208430DD10AE0084304D000209F
:1039E0004FF0110B119072E7A3EB0B056D1E0DE06C
:1039F0005B4504DD4FF0000205F1010504E003DA48
:103A00004FF00002A5F10105002AECD002981199AF
:103A1000C0E90231C0E9004579E700000000144028
:103A20000000F03F300000000000F0430000E03FE5
:103A30002DE9FF4F95B09B468946064600250FE2CB
:103A4000252877D100242746F84A0121059400E073
:103A5000044316F8013F203B01FA03F01042F7D16E
:103A600030782A2811D06FF02F033078A0F130027F
:103A7000092A16D8059A44F0020402EB820203EBED
:103A800042021044761C0590EFE759F8042B05928A
:103A9000002A03DA504244F40054059044F0020432
:103AA000761C30782E2816D116F8010F44F0040445
:103AB0002A280DD06FF02F023078A0F13003092BA7
:103AC00009D807EB870302EB4303C718761CF3E71B
:103AD00059F8047B761C30786C280FD006DC4C2813
:103AE00017D068280DD06A2814D104E0742810D0AB
:103AF0007A280FD10DE044F400140AE044F4801455
:103B000001E044F440147278824202D104F580143A
:103B1000761C761C307866280BD013DC582877D0BA
:103B200009DC002875D04528F6D04628F4D047286F
:103B30001AD19DE118E0632835D0642879D0652832
:103B400012D195E1702873D008DC6728F1D069287C
:103B50006FD06E280DD06F2806D1B5E073282CD019
:103B6000752875D0782874D05A46179990476D1CDF
:103B700075E1C4F30250022809D003280DD0D9F80A
:103B8000001004280DD00D6009F1040967E1D9F88F
:103B90000010EA17C1E90052F6E7D9F800100D80CD
:103BA000F2E70D70F0E719F8041B8DF80010002003
:103BB0008DF80100EA46012003E059F804AB4FF00C
:103BC000FF3061074FF0000102D40DE008F1010160
:103BD0008846B9420FDA8045F8DB1AF80810002948
:103BE000F4D108E008F1010188468142FADB1AF8B5
:103BF00008100029F6D105985B46A0EB080721467E
:103C00003846179A00F094FA284400EB080507E0BC
:103C10004DE029E10DE01AF8010B5A46179990473B
:103C2000B8F10108F7D25B4621463846179A13E1EE
:103C300042E00A220092C4F302524FF0000A022A24
:103C400008D059F804CB032A4FEAEC710AD00DE0F2
:103C500029E02AE009F1070121F00702F2E802C198
:103C6000914609E00FFA8CFC4FEAEC71042A03D16B
:103C70004FFA8CFC4FEAEC71002907DA0A46002162
:103C8000DCF1000C61EB02012D2202E0220504D5DB
:103C90002B228DF80420012203E0E20701D020222C
:103CA000F7E7904659E00A2102E010220DE01021CA
:103CB0004FF0000A00910BE010224FF0000A44F090
:103CC00004040827009203E008224FF0000A009243
:103CD000C4F30252022A05D059F804CB0021032A6A
:103CE00008D009E009F1070121F00702F2E802C15A
:103CF000914605E01FFA8CFC042A01D10CF0FF0C60
:103D00004FF00008220728D5702806D0009B83F0CA
:103D1000100353EA0A0305D00EE040228DF8042078
:103D2000012208E05CEA010206D030228DF804206E
:103D30008DF8050002229046009B83F0080353EAA9
:103D40000A030AD15CEA010201D1620705D53022DB
:103D50008DF804204FF001087F1E582804D034A0AD
:103D600003900EA802900DE036A0F9E75346604696
:103D7000009AFFF773FA84460398825C0298401E0B
:103D8000029002705CEA0100F0D1029806A9081ABC
:103D900000F1200A600702D524F4803400E00127F6
:103DA000574502DDA7EB0A0000E0002000EB0A0106
:103DB000009005984144401A0590E00306D45B4604
:103DC0002146179A059800F0B3F90544002706E04C
:103DD00001A85A46C05D179990476D1C7F1C474546
:103DE000F6DBE0030CD55B462146179A059800F0F8
:103DF0009FF9054404E030205A46179990476D1CFE
:103E00000099481E00900029F5DC08E0029802990C
:103E10005A460078491C0291179990476D1CBAF1D7
:103E20000001AAF1010AF1DC65E1000009280100A6
:103E30003031323334353637383961626364656620
:103E400000000000303132333435363738394142E2
:103E5000434445460000000000F058F90544761C34
:103E6000307800287FF4ECAD19B02846BDE8F08F1B
:103E7000620700D4062709F1070222F0070CFCE8CC
:103E80000223E14603F000485FEA080C02D00FF27B
:103E9000702C0DE05FEA045C02D50FF2682C07E09D
:103EA0005FEAC47C02D00FF2602C01E0AFF2700C2C
:103EB0004FF0FF3823F00043CDF850C065280CD0F8
:103EC00006DC452809D046281DD047283DD13DE0D5
:103ED000662818D067287ED138E00021112F01DB39
:103EE000112000E0781CCDE9000106A90EA8FFF71B
:103EF000DDFCDDE90F010E9A03910021009207F12C
:103F0000010A04914DE04FF000400097CDE9011007
:103F100006A90EA8FFF7CAFCDDE90F0203920E9B6B
:103F200011990022DDF80CA00093049211B9791CBC
:103F300000EB010AB7EB0A0004D4C0F1FF3007F12F
:103F4000010A0490AAEB0700019044E0012F00DA77
:103F500001270021112F01DD112000E03846CDE9B5
:103F6000000106A90EA8FFF7A1FCDDE90F010E9ADA
:103F70000391002104910092BA4621070CD40399C1
:103F8000514500DA8A46BAF1010F05DD009AAAF11F
:103F90000101515C302908D0B84202DA10F1040F57
:103FA00006DA0121CDE9011015E0AAF10101E9E7E6
:103FB000002805DC049901440491AAEB000102E009
:103FC000411C514500DD8A460499401A401C01906D
:103FD0004FF000400290200704D40198504501DBC7
:103FE000CDF8048000208DF84F0002980DF14F07A6
:103FF000B0F1004F25D02B200E9002984FF0020810
:1040000000280CDA404202902D200E9007E00A2191
:104010000298FFF70DF93031029007F8011DB8F151
:104020000001A8F10108F2DC02980028EFD1791E06
:104030000E980870307800F0200040F0450007F836
:10404000020D12A8C01B00F107081498007800B1F7
:10405000012000EB0A01019801EBE0710598414451
:10406000401A401E0590E00306D45B462146179A8D
:10407000059800F05DF805441498007818B15A4688
:10408000179990476D1CE00324D55B462146179A8B
:10409000059800F04DF805441CE00498002807DB63
:1040A000DDE90301884203DD0098405C179901E0D7
:1040B000179930205A469047049805F10105401C95
:1040C00004900198401E019004D12E205A46179961
:1040D00090476D1CBAF10001AAF1010ADDDC05E090
:1040E00017F8010B5A46179990476D1CB8F100015B
:1040F000A8F10108F4DC5B462146179A0598ABE667
:104100002D0000002B000000200000002DE9F041F0
:10411000044600251E461746880404D405E03946A7
:104120002020B0476D1C641EF9D52846BDE8F081FB
:104130002DE9F041044600251E469046C80301D5EE
:10414000302700E02027880404D505E041463846A2
:10415000B0476D1C641EF9D52846BDE8F0811F1CD0
:104160001F1E1F1E1F1F1E1F1E1F00004A616E758F
:10417000617279004665627275617279004D617293
:10418000636800417072696C004D6179004A756E18
:1041900065004A756C7900417567757374005365E5
:1041A0007074656D626572004F63746F6265720052
:1041B0004E6F76656D62657200446563656D62651C
:1041C00072001F1D1F1E1F1E1F1F1E1F1E1F00000F
:1041D000F041000800000020640000008C38000856
:1041E0005442000864000020C40800009C38000805
:1041F00000000000000000000000000000000000BF
:1042000000000000000000000000000000000000AE
:10421000000000000000000000000000000000009E
:104220000000000000000000000000010203040183
:1042300002030406070809020406080000A24A0453
:104240000000000000000000010203040607080946
:04425000000000006A
:0400000508000131BD
:00000001FF
