:020000040800F2
:10000000C804002045010008A9010008AB01000850
:10001000AF010008B3010008B701000800000000AC
:10002000000000000000000000000000BB0100080C
:10003000BD01000800000000BF010008C101000868
:100040005F0100085F0100085F0100085F01000810
:100050005F0100085F0100085F0100085F01000800
:100060005F0100085F0100085F0100085F010008F0
:100070005F0100085F0100085F0100085F010008E0
:100080005F0100085F0100085F0100085F010008D0
:100090005F0100085F0100085F010008C901000856
:1000A0005F0100085F0100085F0100085F010008B0
:1000B0005F0100085F0100085F0100085F010008A0
:1000C0005F0100085F0100085F0100085F01000890
:1000D0005F01000821020008FD0300085F0100081D
:1000E0005F0100085F0100085F0100085F01000870
:1000F0005F0100085F0100085F0100085F01000860
:100100005F0100085F0100085F0100085F0100084F
:100110005F0100085F0100085F0100085F0100083F
:100120005F0100085F0100085F0100085F0100082F
:10013000DFF80CD001F070FA0048004769010008B0
:10014000C80400200648804706480047FEE7FEE74F
:10015000FEE7FEE7FEE7FEE7FEE7FEE7FEE7FEE777
:10016000EB1400083101000800F01AFA00F057FA09
:1001700000F06AFA00F09EFA00F0B8F900F090F989
:100180000AE00648006838B10448016804A001F09C
:1001900055FA002001490860F3E7000050000020F4
:1001A00025640D0A00000000704700BFFEE700BF95
:1001B000FEE700BFFEE700BFFEE7704770477047ED
:1001C00010B500F0D2F910BD10B5202000F092FE5D
:1001D00028B34FF0E020006920F001004FF0E0214B
:1001E00008618F4800688F49884207D98C480068A9
:1001F0008D49086001208D49086002E000208A498D
:100200000860002086490860202000F084FE4FF03E
:10021000E020006940F001004FF0E021086110BDCE
:1002200010B540F22551824801F0ACF838B1804851
:10023000001D0088C4B221467EA001F0FFF910BD68
:1002400001467D480068052837D2DFE800F0030D3D
:1002500017212B00472903D10120774A106002E0C3
:100260000020754A10602AE04E2903D10220724A0C
:10027000106002E00020704A106020E05A2903D18B
:1002800003206D4A106002E000206B4A106016E007
:10029000442903D10420684A106002E00020664A25
:1002A00010600CE0412904D10020634A1060012055
:1002B00070470020604A106001E00020F8E700BFAE
:1002C0000020F5E70EB55D4841780078303800EB46
:1002D000800001EB400030385949C8605748C17868
:1002E0008078303800EB800001EB40003038544912
:1002F0000861524841790079303800EB800001EB09
:10030000400030384E4948614C48817A407A303854
:1003100000EB800001EB40003038494988604748D5
:10032000017BC07A303800EB800001EB40003038B0
:10033000434948604148407B30384FF47A71484324
:100340003E49897B303901EBC10202EB011100EB20
:1003500081013A48C07B303800EB800001EB40015E
:100360003648007C30380844354908600846406902
:100370000969334AD268CDE9002102903048836888
:10038000426801682FA001F059F90EBD2C2800D158
:10039000704734490A680968491C324B196027497B
:1003A000885400BFF4E710B504460D2C0DD12E483B
:1003B0000068012809D100202C4908602A490860FA
:1003C000FFF780FF0020274908602748006818B120
:1003D0002046FFF7DBFF0FE0242C03D10120234947
:1003E000086010BD2148006830B12046FFF728FFA3
:1003F00010B101201C49086000BFF2E710B540F2BF
:1004000025511B4800F0BEFF40B11948001D00886F
:100410001849087008460078FFF7C5FF10BD0000B6
:100420001C00002000770100500000200400002084
:1004300000380140256300000800002078000020FB
:10044000AC00002025642D253032642D2530326427
:1004500020253032643A253032643A253032640D3A
:100460000A0000000C0000201000002014000020F2
:10047000004400401800002008B54FF4C06000F0B0
:1004800053FD17208DF8000000208DF801008DF835
:10049000020001208DF80300684600F04AFD08BD07
:1004A0000EB50121052000F09FFAFFF7E5FF20209F
:1004B000ADF8080028208DF80B0002A90A4800F0CA
:1004C00057FB0521002000F069FC2020009000204F
:1004D0008DF804000C208DF8050001208DF8060031
:1004E000684600F0A1FC0EBD0008014030B526486A
:1004F0000068264AB0FBF2F1B1F1807F01D3012000
:100500001DE021F07F40401E4FF0E0225061501767
:100510000F22002807DA13071D0E1D4B00F00F04F1
:10052000241F1D5503E013071C0E1A4B1C5400BF5B
:1005300000204FF0E022906107201061002008B1F8
:1005400000BFFEE74FF0E020006940F001004FF0EF
:10055000E021086130BD01B50F490098086000BF77
:100560000D4800680028FBD108BD0B48006820B189
:1005700009480068401E0849086008480068401C97
:10058000064908607047000038000020A08601007E
:1005900018ED00E000E400E0200000201C00002036
:1005A00000B585B0012144F2040000F01DFA4FF4BB
:1005B0000070ADF8100018208DF8130003208DF89E
:1005C000120004A94E4800F0D3FA4FF48060ADF851
:1005D000100004208DF8130004A9494800F0C8FA5F
:1005E0004FF4165000900020ADF80400ADF806005E
:1005F000ADF80800ADF80C000C20ADF80A00694613
:10060000404800F042FD012240F225513D4800F0F3
:10061000D4FD01213B4800F0C4FD05B000BD08B584
:100620004FF4E06000F080FC25208DF800000120F0
:100630008DF8010000208DF8020001208DF80300E4
:10064000684600F076FC08BD00B585B0012148047D
:1006500000F0D7F90121042000F0C6F90820ADF818
:10066000100018208DF8130003208DF8120004A943
:10067000234800F07DFA4FF4165000900020ADF8AA
:100680000400ADF80600ADF80800ADF80C00042039
:10069000ADF80A0069461C4800F0F7FC012240F260
:1006A0002551194800F089FD0121174800F079FD16
:1006B00005B000BD08B54FF4E06000F035FC262021
:1006C0008DF8000001208DF8010000208DF8020057
:1006D00001208DF80300684600F02BFC08BD70B5C2
:1006E00004460D46E1B2074800F0C8FD00BF0548CA
:1006F000008800F080000028F9D0204670BD00007E
:10070000000801400038014000440040DF48006814
:1007100040F00100DD49086008464068DC490840B7
:10072000DA49486008460068DA490840D749086055
:100730000846006820F4802008600846406820F4DD
:10074000FE0048604FF41F0088607047CF49096879
:1007500021F48031CD4A11601146096821F48021CD
:100760001160B0F5803F03D0B0F5802F0ED106E0C8
:10077000C649096841F48031C44A116007E0C349A1
:10078000096841F4A021C14A116000E000BF00BF28
:10079000704710B501460022002300204A11012AAB
:1007A00002D1BA4C236806E0022A02D1B74C236A70
:1007B00001E0B64C636A01F01F02012494401C4022
:1007C0000CB1012000E0002010BD38B500200090E1
:1007D0000024002500BF3120FFF7DBFF054600980D
:1007E000401C00900098B0F5A06F01D0002DF2D011
:1007F0003120FFF7CEFF08B1012400E0002420469D
:1008000038BD01460020A14A106820F0F80040EAF7
:10081000C10010607047A049086070470246002080
:100820009A4B586820F47C1042EA01031843974B16
:100830005860704798490866704701460020934AFF
:10084000506820F003000843506070478F484068AC
:1008500000F00C007047014600208C4A506820F0E0
:10086000F00008435060704701460020874A5068F6
:1008700020F4E06008435060704701460020834A3E
:10088000506820F4605040EAC1005060704729B1C0
:100890007E4A527A02437D4B5A7204E07B4A527A76
:1008A00082437A4B5A7270477B49D831086070474F
:1008B00001460020754A506820F4404008435060CB
:1008C00070470021714A20321170704A82F820105E
:1008D000012802D004280AD104E001216B4A203209
:1008E000117005E00521694A2032117000E000BF57
:1008F00000BF70476949086070476449096A01434D
:10090000624A11627047654944390860704730B5E2
:1009100000210022002400235C4D6D6805F00C01CD
:1009200021B1042905D0082923D105E05C4D0560DB
:1009300022E05B4D05601FE0544D6D6805F47012B8
:10094000524D6D6805F48034022505EB92421CB9C6
:10095000544D554305600BE04C4D6D6805F4003572
:100960001DB1504D5543056002E04D4D55430560A6
:1009700002E04B4D056000BF00BF444D6D6805F0BF
:10098000F0010909484D6B5C0568DD4045603F4D4D
:100990006D6805F4E061090A434D6B5C4568DD4014
:1009A00085603A4D6D6805F46051C90A3E4D6B5C37
:1009B0004568DD40C560354D6D6805F44041890BE3
:1009C0003A4D6B5CC568B5FBF3F5056130BD29B1E7
:1009D0002E4A526902432D4B5A6104E02B4A526958
:1009E00082432A4B5A61704729B1284A92690243CF
:1009F000264B9A6104E0254A92698243234B9A610F
:100A0000704729B1214AD2690243204BDA6104E0E0
:100A10001E4AD26982431D4BDA61704729B11B4AD5
:100A2000D2680243194BDA6004E0184AD268824364
:100A3000164BDA60704729B1144A12690243134B0E
:100A40001A6104E0114A12698243104B1A6170471F
:100A500012494039086070470F49C86470470B4914
:100A6000C87170470948406A40F080700749486281
:100A7000704701460020054A92680A400AB10120E9
:100A800000E0002070470149887270470010024062
:100A90000000FFF8FFFFF6FE0000424280044242E1
:100AA00000127A0000093D002400002034000020DC
:100AB00010B50446CC48844208D101210420FFF738
:100AC000ADFF00210420FFF7A9FF46E0C74884429C
:100AD00008D101210820FFF7A1FF00210820FFF71E
:100AE0009DFF3AE0C248844208D101211020FFF75F
:100AF00095FF00211020FFF791FF2EE0BD488442B2
:100B000008D101212020FFF789FF00212020FFF7D5
:100B100085FF22E0B848844208D101214020FFF738
:100B20007DFF00214020FFF779FF16E0B3488442A3
:100B300008D101218020FFF771FF00218020FFF7FD
:100B40006DFF0AE0AE48844207D101218015FFF70E
:100B500065FF0021A015FFF761FF10BD10B5012151
:100B60000846FFF75BFF00210120FFF757FF10BD8C
:100B70002DE9F04102460025002600200023002434
:100B8000002791F803C00CF00F0591F803C00CF09A
:100B9000100CBCF1000F03D091F802C04CEA05051F
:100BA00091F800C0BCF1000F31D0146800202BE098
:100BB0004FF0010C0CFA00F3B1F800C00CEA030688
:100BC0009E4220D183004FF00F0C0CFA03F7BC4378
:100BD00005FA03FC4CEA040491F803C0BCF1280FA9
:100BE00006D14FF0010C0CFA00FCC2F814C00AE068
:100BF00091F803C0BCF1480F05D14FF0010C0CFA7D
:100C000000FCC2F810C0401C0828D1D31460B1F811
:100C100000C0BCF1FF0F34DD546800202EE000F16D
:100C2000080C4FF0010808FA0CF3B1F800C00CEA08
:100C300003069E4221D183004FF00F0C0CFA03F7FC
:100C4000BC4305FA03FC4CEA040491F803C0BCF170
:100C5000280F05D100F1080C08FA0CF8C2F814802E
:100C600091F803C0BCF1480F07D100F1080C4FF018
:100C7000010808FA0CF8C2F81080401C0828CED3EE
:100C80005460BDE8F0814FF6FF7101800221817050
:100C90000421C17070470246002093680B400BB1DD
:100CA000012000E0002070470146886880B270474C
:100CB00002460020D3680B400BB1012000E0002069
:100CC00070470146C86880B2704701617047416152
:100CD00070470AB1016100E041617047C16070472F
:100CE0004FF480320A438261816182618269826944
:100CF000704702460020434B18684FF68073184037
:100D000040EA021008433F4B186070473E49C861F3
:100D10007047F0B50A46002300240021002500F0AA
:100D20000046B6F1004F02D1364EF16901E0354E72
:100D30007168C0F3034583B200F44016B6F5401F56
:100D400008D121F070612F4E766826F070662D4F25
:100D50007E6012E000F48016B6F5801F06D10326EF
:100D600006FA05F4A14341F0706106E0460D360134
:100D700003FA06F6B14341F0706122B1460D360127
:100D800003FA06F6314300F00046B6F1004F02D1F7
:100D90001C4EF16101E01B4E7160F0BD30B50022C8
:100DA0008B071C0F0F2303FA04F2164B08338C1029
:100DB00053F824309343134C08348D1044F82530F5
:100DC00023468C1053F824308C07240F00FA04F4C7
:100DD00023430C4C08348D1044F8253030BD0A49AB
:100DE000DC3108607047000000080140000C014041
:100DF000001001400014014000180140001C014097
:100E00000020014000000140000020420020444931
:100E10000860091D0860091D0860091D0860414837
:100E20003F4914310860704700213D498279002A0A
:100E30003AD00A46126803689A430B461A600A1DA4
:100E4000126803689A430B1D1A60027911440A68FC
:100E500003681A430A60324A0832126803689A43E8
:100E60002F4B08331A601A1D126803689A432C4BE3
:100E70000C331A604279102A0ED11A1F12680368C7
:100E80001A43274B08331A601A1D126803681A4365
:100E9000234B0C331A600DE02149427911440A6852
:100EA00003681A430A6005E0027911440A6803687E
:100EB0009A430A6070470021016001710C21417161
:100EC0000021817170471649103109680143144AA5
:100ED00010321160704701460020114A1432126826
:100EE0000A400AB1012000E0002070470C4914318B
:100EF00008607047014600200022094B1B6803EA86
:100F00000102074B14331B680B4013B10AB10120D7
:100F100000E000207047024914310860704700006B
:100F200000040140FFFF0F0031490143314A1160C5
:100F3000704770B5002100230F22C47804B32D4CF4
:100F4000246804F4E064C4F5E064210AC1F10403F8
:100F5000CA40447804FA03F184781440214309011B
:100F6000254C0678A155047804F01F050124AC40F7
:100F700005786D11AD0005F1E025C5F8004109E0E7
:100F8000047804F01F050124AC401C4D067876114E
:100F900045F8264070BD1A4A0A400243154B1B1FF4
:100FA0001A60704739B1134A121D12680243114B7F
:100FB0001B1D1A6006E00F4A121D126882430D4B7A
:100FC0001B1D1A607047042808D14FF0E021096901
:100FD00041F004014FF0E022116107E04FF0E02101
:100FE000096921F004014FF0E0221161704700000F
:100FF0000000FA050CED00E000E400E080E100E014
:1010000080FFFF1F10B50446FB48844209D101212F
:101010008803FFF703FD00214FF48040FFF7FEFC3B
:1010200032E0F648844209D101214804FFF703FD6C
:1010300000214FF40030FFF7FEFC25E0F048844229
:1010400009D101218804FFF7F6FC00214FF480202C
:10105000FFF7F1FC18E0EB48844209D10121C804F4
:10106000FFF7E9FC00214FF40020FFF7E4FC0BE060
:10107000E548844208D101210805FFF7DCFC002186
:101080004FF48010FFF7D7FC10BD2DE9F04786B074
:1010900005460E460024A24600BFA1460027B0899F
:1010A00000B100BF2F462C8A4CF6FF700440F08838
:1010B00004432C82AC894EF6F3100440B088318989
:1010C0000843718908430443AC81AC8A4FF6FF4062
:1010D0000440B0890443AC8201A8FFF718FCC6485D
:1010E000874202D1DDF810A001E0DDF80CA0A8894C
:1010F00000F4004040B10AEBCA0000EB0A1031686E
:101100004900B0FBF1F807E00AEBCA0000EB0A1057
:1011100031688900B0FBF1F86420B8FBF0F00401FD
:101120002009642101FB1089A88900F4004040B126
:10113000322000EBC900B0FBF1F000F007000443DF
:1011400008E0322000EB09106421B0FBF1F000F060
:101150000F0004432C8106B0BDE8F0874FF4165110
:10116000016000218180C18001810C214181002129
:101170008181704710B502460020108A4FF2FF03AC
:1011800018400B884C8823438C882343CC88234306
:101190001843108210BD0021018041808180C180F0
:1011A000704721B1828942F40052828104E0828931
:1011B0004DF6FF731A4082817047F0B50346002454
:1011C00000260025002040F66A17B94200D100BF72
:1011D0001846C1F3421401F01F06012707FA06F56D
:1011E000012C01D10C3004E0022C01D1103000E0C0
:1011F00014301AB107682F43076002E00768AF4355
:101200000760F0BD1AB1838A0B43838202E0838AB0
:101210008B4383827047028A4FF6F0731A40028232
:10122000028A0A430282704782894FF2FF731A4092
:10123000828182890A438281704721B1828942F08A
:101240000202828104E082894FF6FD731A40828196
:101250007047028A4FF6DF731A400282028A0A43FD
:101260000282704721B1028A42F48042028204E085
:10127000028A4BF6FF731A4002827047C1F30802DC
:101280008280704701468888C0F3080070478189D2
:1012900041F0010181817047028BD2B20283028B3F
:1012A00042EA012202837047028B02F47F420283EA
:1012B000028B0A430283704721B1828A42F02002E6
:1012C000828204E0828A4FF6DF731A40828270477E
:1012D00021B1828A42F01002828204E0828A4FF6B3
:1012E000EF731A408282704721B1828A42F008026D
:1012F000828204E0828A4FF6F7731A408282704736
:1013000021B1828942F40042828103E08289C2F3E2
:101310000E028281704721B1828A42F40062828289
:1013200004E0828A4FF2FF731A4082827047828AF9
:101330004FF6FB731A408282828A0A438282704788
:1013400021B1828A42F00202828204E0828A4FF650
:10135000FD731A408282704702460020B1F5007F7B
:1013600000D100BF13880B400BB1012000E000202A
:10137000704701F40072B2F5007F00D100BFCA438C
:101380000280704770B5024600240023002500202B
:1013900040F66A16B14200D100BFC1F3421501F018
:1013A0001F03012606FA03F3012D02D1968933406B
:1013B00006E0022D02D1168A334001E0968A3340BE
:1013C0000C12012606FA04F41688344013B10CB14D
:1013D000012000E0002070BD10B50022002340F67F
:1013E0006A14A14200D100BF0A1201249440A3B2A2
:1013F000DC43048010BD0000003801400044004080
:1014000000480040004C0040005000400CB5002057
:10141000019000906C48006840F480306A49086090
:1014200000BF6948006800F4003000900198401C3B
:101430000190009818B90198B0F5A06FF1D16248F9
:10144000006800F4003010B10120009001E000209D
:1014500000900098012843D15C48006840F01000DB
:101460005A4908600846006820F0030008600846F2
:10147000006840F0020008605348406852494860E4
:101480000846406848600846406840F4806048600C
:101490000846406820F47C1048600846406840F4E4
:1014A000E81048600846006840F08070086000BF9F
:1014B0004548006800F000700028F9D042484068B4
:1014C00020F00300404948600846406840F00200B0
:1014D000486000BF3C48406800F00C000828F9D183
:1014E0000CBD10B5FFF792FF10BD10B5364800686F
:1014F00040F001003449086008464068344908401B
:101500003149486008460068324908402E49086061
:101510000846006820F4802008600846406820F4EF
:10152000FE0048604FF41F008860FFF7DAFF4FF0BD
:1015300000602949086010BD10B50021002000227C
:10154000214B5B6803F00C0121B1042906D0082966
:1015500028D107E0214B224C236027E01F4B204C71
:10156000236023E0184B5B6803F47010164B5B6834
:1015700003F48032022303EB904022B9194B43431A
:10158000174C23600DE0104B5B6803F4003323B16C
:10159000144B4343124C236003E0104B4343104C65
:1015A000236003E00D4B0E4C236000BF00BF064BD1
:1015B0005B68C3F303130C4CE15C094B1B68CB4025
:1015C000074C236010BD00000010024000200240C4
:1015D0000000FFF8FFFFF6FE08ED00E000127A00C1
:1015E0003800002000093D003C00002030B50B46CB
:1015F000014600202022012409E021FA02F59D4243
:1016000005D303FA02F5491B04FA02F52844151E16
:10161000A2F10102F1DC30BD064C074D06E0E068A6
:1016200040F0010394E8070098471034AC42F6D329
:10163000FEF782FDC0190008E01900080FB4054B41
:1016400010B503A9044A029800F018F810BC5DF820
:1016500014FB0000DF0600084C00002002E008C870
:10166000121F08C1002AFAD170477047002001E01C
:1016700001C1121F002AFBD1704700002DE9FF4F66
:101680008BB088460546002606E025280BD0DDE90C
:101690000D1290476D1C761C28780028F5D10FB0EC
:1016A0003046BDE8F08F0024A146A2460122AE4993
:1016B00000E0044315F8013F203B02FA03F0084222
:1016C000F7D128782A2810D06FF02F022878A0F1BF
:1016D0003001092915D809EB890102EB410144F0D9
:1016E000020400EB01096D1CF0E758F8041B5FEAE7
:1016F000010903D544F40054C9F1000944F002047F
:101700006D1C28782E2817D115F8010F44F0040419
:101710002A280ED06FF02F022878A0F13001092975
:101720000AD80AEB8A0102EB410100EB010A6D1CA9
:10173000F2E758F804AB6D1C28786C280FD006DC53
:101740004C2817D068280DD06A2814D104E07428DA
:1017500010D07A280FD10DE044F400140AE044F4CC
:10176000801401E044F440146978814202D104F508
:1017700080146D1C6D1C2878692865D006DC002853
:101780008DD0632827D0642806D15DE06E2808D06C
:1017900073282AD0752877D0DDE90D129047761C82
:1017A000E0E0C4F30250022809D003280DD0D8F895
:1017B000001004280DD00E6008F10408D2E0D8F81B
:1017C0000010F217C1E90062F6E7D8F800100E80A9
:1017D000F2E70E70F0E718F8041B8DF800100020F7
:1017E0008DF80100EB46012003E058F804BB4FF0F0
:1017F000FF3061074FF0000701D40AE07F1C574516
:101800000DDA8742FADB1BF807100029F6D106E053
:101810007F1C8742FCDB1BF807100029F8D1DDE9AB
:101820000D23A9EB07008146214600F0B1F83044B2
:10183000C61904E0DDE90D121BF8010B90477F1E6D
:10184000F8D22146484688E058F8040BC4F3025108
:101850004FF00A0B032900D100B2042900D140B295
:10186000002802DA40422D2102E0210505D52B2176
:101870008DF82410012104E006E0E10710D02021BA
:10188000F6E708AF089113E058F8040BC4F30251CF
:101890004FF00A0B032900D180B2042900D1C0B255
:1018A0000021EEE75946FFF7A1FE303107F8011D90
:1018B0000028F7D1ADEB070000F1200B600702D53F
:1018C00024F4803401E04FF0010ADA4502DDAAEB8E
:1018D0000B0000E00020824600EB0B010898014459
:1018E000A9EB01000A90E00306D4DDE90D232146AF
:1018F0000A9800F04DF806444FF0000908E009A9E5
:1019000011F80900DDE90D12904709F10109761C73
:1019100008998945F3DBE0030CD5DDE90D23214669
:101920000A9800F035F8064404E0DDE90D12302095
:101930009047761CBAF10001AAF1010AF5DC05E036
:10194000DDE90D1217F8010B9047761CBBF1000181
:10195000ABF1010BF4DC0A982146DDE90D2300F020
:1019600005F806446D1C97E6092801002DE9F041B1
:10197000044600251E461746880404D405E039466F
:101980002020B0476D1C641EF9D52846BDE8F081C3
:101990002DE9F041044600251E469046C80301D5B6
:1019A000302700E02027880404D505E0414638466A
:1019B000B0476D1C641EF9D52846BDE8F0810000D3
:1019C000E019000800000020500000005C1600082C
:1019D000301A000850000020780400006C1600083F
:1019E00000000000000000000000000000000000F7
:1019F00000000000000000000000000000000000E7
:101A000000000000000000000102030401020304C2
:101A1000060708090204060800A24A0400000000A4
:101A2000000000000102030406070809000000008E
:0400000508000131BD
:00000001FF
